:020000040000FA
:040000000DEF00F010
:04000800E9EF00F02C
:10001800FF006FEF02F0096E0950D8B416EF00F038
:1000280018EF00F03AEF00F004BE1FEF00F01DEFEC
:1000380000F03AEF00F001C005F002C006F003C07E
:1000480007F004C008F0051E061E071E081E052A34
:10005800000E06220722082205C00BF006C00CF08D
:1000680007C00DF008C00EF042EF00F001C00BF021
:1000780002C00CF003C00DF004C00EF001500210D5
:1000880003100410D8A44BEF00F04DEF00F057EF29
:1000980000F0000E016E000E026E000E036E000EE0
:1000A800046EE8EF00F0960E0A6E61EF00F00A2A7F
:1000B800D8900E320D320C320B32000E0B14056E36
:1000C800000E0C14066E000E0D14076EFE0E0E14B4
:1000D800086E0550061007100810D8A476EF00F037
:1000E80078EF00F05BEF00F086EF00F00A2A010ECF
:1000F8000B26000E0C220D220E22D8900E320D3245
:100108000C320B32000E0B14056E000E0C14066E2A
:10011800000E0D14076EFF0E0E14086E0550061023
:1001280007100810D8A49BEF00F09DEF00F07AEFBD
:1001380000F0A5EF00F00A06D8900B360C360D3605
:100148000E360DBEAAEF00F0ACEF00F0B4EF00F0F1
:10015800020E0A60B2EF00F0B4EF00F09FEF00F07B
:100168000AB0B9EF00F0BBEF00F0BCEF00F00D9E55
:10017800D8900A320AC005F0066A076A086A05C0FC
:1001880008F0076A066A056A05500B1206500C1239
:1001980007500D1208500E120950D8B4D6EF00F0CF
:1001A800D8EF00F0E0EF00F004BEDFEF00F0DDEF85
:1001B80000F0E0EF00F00E8E0BC001F00CC002F072
:1001C8000DC003F00EC004F01200390191A5EFEF45
:1001D80000F0F1EF00F0AEEF01F0A1A5F6EF00F0AE
:1001E800F8EF00F0AEEF01F064EC02F001C01CF093
:1001F80002C01DF05A0E0F6EF50E106E790E116EBC
:10020800440E126E1CC001F01DC002F0036A046A9D
:10021800000E0FEC00F001C013F002C014F003C090
:1002280015F004C016F0AFEC01F0D8A01EEF01F0F5
:1002380022EF01F01B6A1B2A23EF01F01B6ABB5057
:100248001B18FE0B1B18BB6E750E0F6E020E106E80
:10025800FA0E116E440E126E1CC001F01DC002F0A1
:10026800036A046A000E0FEC00F001C013F002C02C
:1002780014F003C015F004C016F0AFEC01F0D8A0DC
:1002880048EF01F04CEF01F01B6A1B2A4DEF01F01B
:100298001B6A1B46BB501B18FD0B1B18BB6E910E2F
:1002A8000F6E7E0E106E3B0E116E450E126E1CC048
:1002B80001F01DC002F0036A046A000E0FEC00F0A2
:1002C80001C013F002C014F003C015F004C016F00A
:1002D800AFEC01F0D8A073EF01F077EF01F01B6AE3
:1002E8001B2A78EF01F01B6A1B461B46BB501B18E4
:1002F800FB0B1B18BB6ED60E0F6EFF0E106E790E21
:10030800116E450E126E1CC001F01DC002F0036A8A
:10031800046A000E0FEC00F001C013F002C014F0E4
:1003280003C015F004C016F0AFEC01F0D8A09FEFA1
:1003380001F0A3EF01F01B6A1B2AA4EF01F01B6A6E
:100348001B461B461B46BB501B18F70B1B18BB6EE6
:100358003901A1951100000E0F14176E000E10142C
:10036800186E800E1114196E7F0E12141A6E175023
:10037800181019101A10D8A4C4EF01F0C6EF01F034
:10038800CEEF01F0000E0F6E000E106E000E116E13
:10039800000E126E000E1314176E000E1414186E51
:1003A800800E1514196E7F0E16141A6E1750181039
:1003B80019101A10D8A4E3EF01F0E5EF01F0EDEF02
:1003C80001F0000E136E000E146E000E156E000E76
:1003D800166E12AEF2EF01F0F4EF01F0FDEF01F04E
:1003E8000F6C101ED8B0102A111ED8B0112A800E1A
:1003F800125616AE02EF02F004EF02F00DEF02F013
:10040800136C141ED8B0142A151ED8B0152A800EE5
:100418001656000E0F1A000E101A000E111A800E32
:10042800121A000E131A000E141A000E151A800E56
:10043800161A13500F5C14501058155011581650B6
:100448001258D8B02AEF02F02CEF02F02FEF02F08A
:10045800D89030EF02F0D8801200000E3E01FD6FF8
:10046800000EF16F000EF66F400EF36F1F0EF46F63
:10047800080EFE6F070EFF6F940EF86F3901918515
:10048800A19512009650F00B0409966E000E956E19
:10049800000E976E600E936E000E926E3901A99150
:1004A800D00E946E1200D28E78EC02F046EC02F078
:1004B80031EC02F03E01F88160EF02F00DEF00F040
:1004C8003E01F051046E036AEF510324016E000EE1
:1004D8000420026E1200080ED56E000ED66E000EB5
:1004E800D76E000157EF02F0F00E3A01506FF00E90
:0804F800C36E4081C2801200B6
:020000040020DA
:10000000FF0FFF0FFF0FFF0FFF0FFF0FFF0FFF0F80
:020000040030CA
:0A000000FADFF7FF9FFFFFFFFFFF8D
:00000001FF
