:020000040000FA
:04000000FEEF7FF0A0
:10FC8E00000165EF7EF0FF0E036EFF0E046E600046
:10FC9E0004F005F0600008F006F00350052604504D
:10FCAE000622600014F027F0600018F028F0296A90
:10FCBE002A6A2B6A2C6A2D6A2E6A1200F00E3A01FD
:10FCCE00506FF00E3F01C36F000E026E0A0E016EF2
:10FCDE004AEC7EF073EF7EF074EC7FF0600064F01F
:10FCEE0025F0600068F026F0600094F001F06000EE
:10FCFE0098F002F0080E046E000E036EFCEC7EF01F
:10FD0E00600004F025F0600008F026F0600097F027
:10FD1E00CBFF3D0E246EE10E236E400EE82EFED775
:10FD2E00232EFCD7242EFAD773EF7EF073EF7EF0DE
:10FD3E00FEEF7FF020EE11F0070EDE6AE806FDE220
:10FD4E00A9EF7EF001A0AEEF7EF0B0EF7EF0C2EF35
:10FD5E007EF0095011260A5012220B5013220C501D
:10FD6E0014220D5015220E5016220F50172210502D
:10FD7E001822C2EF7EF0D89009360A360B360C36B2
:10FD8E000D360E360F361036D89008320732063240
:10FD9E0005320432033202320132015002100310D6
:10FDAE0004100510061007100810D8A4E1EF7EF01D
:10FDBE00E3EF7EF0A9EF7EF0600044F001F060000A
:10FDCE0048F002F060004CF003F0600050F004F0D8
:10FDDE00600054F005F0600058F006F060005CF032
:10FDEE0007F0600060F008F01200000E066E04BE10
:10FDFE0005EF7FF003EF7FF00DEF7FF0036C041E35
:10FE0E00D8B0042A010E066E0DEF7FF002BE14EF7D
:10FE1E007FF012EF7FF01CEF7FF0016C021ED8B066
:10FE2E00022A010E061A1CEF7FF0000E086E000E5D
:10FE3E00076E03500410D8B427EF7FF029EF7FF040
:10FE4E005DEF7FF0010E056E33EF7FF0D890033635
:10FE5E000436052A33EF7FF004AE38EF7FF03AEF29
:10FE6E007FF02DEF7FF03EEF7FF03EEF7FF0D890EA
:10FE7E00073608360350015C04500258D8A04AEFEA
:10FE8E007FF04CEF7FF053EF7FF00350015E045094
:10FE9E00025A078053EF7FF0D89004320332052EBA
:10FEAE003EEF7FF05DEF7FF05DEF7FF00650D8B450
:10FEBE0063EF7FF065EF7FF06BEF7FF0076C081E4E
:10FECE00D8B0082A6BEF7FF060001CF001F06000E4
:10FEDE0020F002F073EF7FF0120060009CF001F052
:10FEEE006000A0F002F06000A4F003F06000A8F043
:10FEFE0004F06000ACF005F06000B0F006F06000B9
:10FF0E00B4F007F06000B8F008F02D0E096E7F0E09
:10FF1E000A6E950E0B6E4C0E0C6E2D0E0D6EF40EB3
:10FF2E000E6E510E0F6E580E106EA1EC7EF060002C
:10FF3E0004F01BF0600008F01CF060000CF01DF0E7
:10FF4E00600010F01EF0600014F01FF0600018F05A
:10FF5E0020F060001CF021F0600020F022F0010E75
:10FF6E001B24276E000E1C20286E000E1D20296EED
:10FF7E00000E1E202A6E000E1F202B6E000E20205B
:10FF8E002C6E000E21202D6E000E22202E6E600093
:10FF9E009CF01BF06000A0F01CF06000A4F01DF0BF
:10FFAE006000A8F01EF06000ACF01FF06000B0F032
:10FFBE0020F06000B4F021F06000B8F022F0080EDE
:10FFCE00F2EF7FF0D8902232213220321F321E32D1
:10FFDE001D321C321B32E82EE9EF7FF060006CF010
:10FFEE0019F0600074F01AF0FDEF7FF0120047EF89
:02FFFE007EF093
:020000040020DA
:10000000FF0FFF0FFF0FFF0FFF0FFF0FFF0FFF0F80
:020000040030CA
:0A000000FADFF7FF9FFFFFFFFFFF8D
:00000001FF
