:020000040000FA
:04000000FEEF7FF0A0
:10100000004166726F20456D6265646465642053BB
:101010006F6C7574696F6E7300426C75654D6F6FA0
:101020006E20496E7465726E002020414153545504
:101030002032303139202000446576656C6F706550
:10104000645F62793A00544544524F530000000EE9
:101050003A01706F000EC56EE6EC08F0150E0C6ECE
:101060004B0E0B6EBE0EE82EFED70B2EFCD70C2EB1
:10107000FAD700D0C6EC09F0010E046E010E47EC61
:1010800009F0290E056E100E066E1EEC09F0010E19
:10109000046E020E47EC09F0190E056E100E066E76
:1010A0001EEC09F0150E0C6E4B0E0B6EBE0EE82EEC
:1010B000FED70B2EFCD70C2EFAD700D0C6EC09F0C9
:1010C000010E046E010E47EC09F0380E056E100E8D
:1010D000066E1EEC09F0010E046E020E47EC09F0DC
:1010E000460E056E100E066E1EEC09F0150E0C6E07
:1010F0004B0E0B6EBE0EE82EFED70B2EFCD70C2E21
:10110000FAD700D0C6EC09F0010E046E010E47ECD0
:1011100009F0010E056E100E066E1EEC09F0000EB1
:101120000E6E000E0D6E070E0C6E170E0B6E6A0E15
:10113000E82EFED70B2EFCD70C2EFAD700D0BFEC32
:1011400009F00D4A0E2A0E5004E10F0E0D5CD8A0D6
:10115000EAD7000E0E6E000E0D6E070E0C6E170E07
:101160000B6E6A0EE82EFED70B2EFCD70C2EFAD78C
:1011700000D0B8EC09F00D4A0E2A0E5004E10F0E13
:101180000D5CD8A0EAD7C6EC09F0010E046E020E81
:1011900047EC09F0410E6FEC09F0410E6FEC09F0DD
:1011A000530E6FEC09F0540E6FEC09F0550E6FEC16
:1011B00009F0150E0C6E4B0E0B6EBE0EE82EFED710
:1011C0000B2EFCD70C2EFAD700D048D7000E8BEC94
:1011D00009F0340E046EF20EE82EFED7042EFCD772
:1011E000030EA1EC09F00D0E046EFC0EE82EFED7E6
:1011F000042EFCD7030EA1EC09F01D0E046E910E17
:10120000E82EFED7042EFCD700F0030EA1EC09F067
:10121000020EA1EC09F0020EA1EC09F0080EA1ECFF
:1012200009F0000EA1EC09F00C0EA1EC09F0000E83
:10123000A1EC09F0060EA1EC09F01200000E0A6EF6
:10124000000E096E12D009500524076E0A500620C0
:10125000086E60001FF0F6FF600023F0F7FF080043
:10126000F5506FEC09F0094A0A2A09500524076E67
:101270000A500620086E60001FF0F6FF600023F0A1
:10128000F7FF0800F5500009D8B41200DCD7056E4E
:101290000504D8A410D004507F0F086E08380F0B37
:1012A000066E08500F0B076E0650A1EC09F00750B0
:1012B000A1EC09F01200020E0518D8A41200045087
:1012C000BF0F086E08380F0B066E08500F0B076E25
:1012D0000650A1EC09F00750A1EC09F01200046ED1
:1012E00004500F0B026E0450F00B036ECD840338D4
:1012F0000F0B8BEC09F0CD861A0EE82EFED700D02E
:10130000CD9602508BEC09F0CD861A0EE82EFED752
:1013100000D0CD961200016E01A002D0CD8801D080
:10132000CD9801A202D0CD8A01D0CD9A01A402D0DD
:10133000CD8C01D0CD9C01A602D0CD8E1200CD9EC9
:101340001200036ECD9403508BEC09F0CD860B0E8A
:10135000026E620EE82EFED7022EFCD700D0CD968C
:101360001200000EF86E100EF76E000127EF08F065
:10137000010EA1EC09F00C0EA1EC09F01200010E17
:10138000A1EC09F0080EA1EC09F01200000EA1EC8E
:0A13900009F0010EA1EC09F01200B3
:04FFFC00B1EF09F068
:020000040020DA
:10000000FF0FFF0FFF0FFF0FFF0FFF0FFF0FFF0F80
:020000040030CA
:0A000000FADFF7FF9FFFFFFFFFFF8D
:00000001FF
