:020000040000FA
:04000000FEEF7FF0A0
:10FF3C00000102030405060708090A0B0C0D0E0F3D
:10FF4C003C0EF66EFF0EF76E000EF86E00EE15F01E
:10FF5C0010EE10F009006F00D7FFEEFFE550E150F6
:10FF6C00F9E10001BAEF7FF0010E146E20EE15F0EE
:10FF7C0010EE03F00F0E6F006FFFE3FFE806FBE2DD
:10FF8C00F00E3A01506FF00E3F01C36F3A01609BC7
:10FF9C003F01C48BD2EF7FF01450010D030EF324FC
:10FFAC00D96E000EF420DA6EDF50136E60004FF045
:10FFBC00CBFF060E026E130E016EAE0EE82EFED7B0
:10FFCC00012EFCD7022EFAD7100E1418D8A4F1EF7C
:10FFDC007FF0F3EF7FF0F7EF7FF0010E146ED2EFAE
:10FFEC007FF0142AD2EF7FF0D2EF7FF0FEEF7FF09C
:04FFFC00A6EF7FF0FD
:020000040020DA
:10000000FF0FFF0FFF0FFF0FFF0FFF0FFF0FFF0F80
:020000040030CA
:0A000000FADFF7FF9FFFFFFFFFFF8D
:00000001FF
