:020000040000FA
:040000000DEF00F010
:040008000FEF00F006
:10001800FF0053EF00F0390190AF11003A0167ABD0
:100028001100BBA602D0010E01D0000EFF0A016E1E
:10003800014601460146BB500118F70B0118BB6E7B
:10004800BBA402D0010E01D0000EFF0A016E0146CA
:100058000146BB500118FB0B0118BB6EBBA202D0B6
:10006800010E01D0000EFF0A016E0146BB500118B7
:10007800FD0B0118BB6E679B1100F10E3A01506F22
:10008800F10EC36E609BC48A200E616FD28E390157
:10009800908F3A01679B659B668B0DEF00F0080E09
:1000A800D56E000ED66E000ED76E000141EF00F03F
:020000040020DA
:10000000FF0FFF0FFF0FFF0FFF0FFF0FFF0FFF0F80
:020000040030CA
:0A000000FADFF7FF9FFFFFFFFFFF8D
:00000001FF
